:100000000200C880378C2D8D2E8017758CFC758A68
:1000100018D28CA28DB382B04002800280F5C28DCE
:10002000C28CAC2DE52EFD152E7002152DED24FF92
:10003000EC6480347F4002800280D02280C78072CE
:10004000E4F520F521E4F522F523758901752400F6
:100050007525017526027527047528087529107500
:100060002A20752B40752C808524907C007D0212FF
:100070000003792587907C007D00120003E526258A
:1000800027F5907C007D02120003792A87907C007E
:100090007D00120003E52B252CF5907C007D0212DB
:1000A0000003E5282529F5907C007D0712000380D8
:1000B000C122808CE4F5D075812F78207A0FF60864
:0B00C000DAFC12003E0200000200B457
:00000001FF
